:020000003228A4
:10000800803120007F08F800911E0B280C282E282C
:100018007909F6007A09F700F60A0319F70A76084B
:10002800013EF9000030773DFA00F430F00001306D
:10003800F10080317D2080317A0879040319252860
:1000480026282A2820000C158C142E2820000C1194
:100058008C102E2891127808FF0009008801992831
:100068005A302100990023008C01083021008C00AF
:1000780020008C0122009D171D1523009F15243098
:100088009E0090309D0019309B00200091122100A5
:1000980091160B178B17F4302000A0000130A10037
:1000A80080315F20803130302000A6002608A7006C
:1000B8005D285D2832282000A401A501712804309C
:1000C800A3003D30A200A20B6728A30B67286C2869
:1000D80001302000A4070030A53D21082502031D9A
:1000E800772820082402031C7A287B2863287C2888
:1000F8000800F401F5018D280430F3003D30F200CA
:10010800F20B8428F30B842889280130F407003087
:10011800F53D71087502031D932870087402031CCD
:1001280096289728802898280800F901FA01803134
:0C013800A1208031FB002000342830346E
:020000040001F9
:04000E0084CFFFDAC2
:00000001FF
