:020000000F28C7
:10000800DE00030E8312A6000408A7000A08A80051
:100018005F08A90014288316FF239000830187280E
:100028000B11063081000130A0070318A10A003027
:10003800A1072108803ADF0081305F02031D2628CE
:10004800F0302002031C29282A2869288312A001DD
:10005800A1010130A4070318A50A0030A507230849
:100068002204031D3828392853282508803ADF0040
:1000780080305F02031D42281E30240203184528E1
:1000880046284B288312051C4A284B2869288312C6
:1000980085120130A2000030A300692869282508CC
:1000A800803ADF008C305F02031D5C28A8302402F0
:1000B800031C5F286028692883128516A401A501FE
:1000C800A201A30169286928692883122908DF0089
:1000D80028088A0027088400260E8300DE0E5E0E9C
:1000E800090083169F0101308500203083128500A6
:1000F8000730990002308316810006308312810090
:10010800A0308B000800A001A101A201A301A40155
:0E011800A50183018F287520912891280F28BA
:02400E00C43FAD
:00000001FF
