:06000000012888019E2F7B
:100F3C002000BC2FF401F501B02F0430F3003D303C
:100F4C00F200F20BA72FF30BA72FAC2F0130F407F5
:100F5C000030F53D71087502031DB62F7008740240
:100F6C00031CB92FBA2FA32FBB2F08005A30210016
:100F7C00990023008C01083021008C0020008C018A
:100F8C0022009D171D1523009F1524309E009030C4
:100F9C009D0019309B00F430F0000130F1008731D6
:100FAC00A02787313030F6007608F700DE2FDE2FD1
:100FBC002000111EE22FE32FDE2FE42F77082300F1
:100FCC009A000130F6007608F7077C307702031C94
:100FDC00F02FF12FF62F3030F6007608F700F62FB1
:100FEC006430F0000030F1008731A0278731DE2F0C
:040FFC00DE2F0128BB
:020000040001F9
:04000E0084CFFFDAC2
:00000001FF
