:0600000001288801452FD4
:100E8A002000972FF200602F22000C155230F1003B
:100E9A002930F000F00B4F2FF10B4F2F542F220067
:100EAA000C115230F1002930F000F00B5A2FF10BDF
:100EBA005A2F5F2F602F0130F2027208FF3A031D8A
:100ECA00672F682F492F692F080022000C1511304F
:100EDA00F1003A30F000F00B702FF10B702F640024
:100EEA0022000C111130F1003A30F000F00B7B2F88
:100EFA00F10B7B2F640022000C151130F1003A30FF
:100F0A00F000F00B862FF10B862F640022000C11E3
:100F1A001130F1003A30F000F00B912FF10B912FC4
:100F2A00640008005A3021009900043020008C0027
:100F3A0022009D171D15293021008C0023008C01E9
:100F4A001F3024008C0021009513903023009D004F
:100F5A0024309E0008309F009F1519309B00B62F41
:100F6A00B62F2000911EBA2FBB2FB62F23009D1C2F
:100F7A00BF2FC02FC72F1D121D161908F3007308A3
:100F8A00F400B62F1908F3007308F400CC2F2000E0
:100F9A00111ED02FD12FCC2FD22F740823009A00E4
:100FAA00EF2F0130873147278731B62F023087313B
:100FBA0047278731B62F0330873147278731B62F26
:100FCA000430873147278731B62F87316A2787311F
:100FDA00B62FB62F7408313A0319D62F033A0319DC
:100FEA00DB2F013A0319E02F073A0319E52FEA2FFD
:060FFA00B62FB62F0128FE
:020000040001F9
:04000E0084CFFFDAC2
:00000001FF
