:0600000001288801492FD0
:100E92002000A32FF3006C2F22000C150230F20069
:100EA2004530F100A930F000F00B552FF10B552F12
:100EB200F20B552F5C2F22000C110230F20045304C
:100EC200F100A930F000F00B642FF10B642FF20B4C
:100ED200642F6B2F6C2F0130F3027308FF3A031D4E
:100EE200732F742F4D2F752F080022000C154130DF
:100EF200F100EE30F000F00B7C2FF10B7C2F640040
:100F020022000C114130F100EE30F000F00B872F7F
:100F1200F10B872F640022000C154130F100EE30F6
:100F2200F000F00B922FF10B922F640022000C11B3
:100F32004130F100EE30F000F00B9D2FF10B9D2FB0
:100F4200640008006A302100990020008C01220010
:100F52009D17FB3021008C0023008C011F302400E0
:100F62008C0021009513903023009D0004309E00D8
:100F720008309F009C0167309B00C02FC02F2000CB
:100F8200911EC42FC52FC02F23009D1CC92FCA2F0D
:100F9200D12F1D121D161908F4007408F500C02F78
:100FA2001908F4007408F500EF2F013087314B2740
:100FB2008731C02F023087314B278731C02F033052
:100FC20087314B278731C02F043087314B27873138
:100FD200C02F873176278731C02FC02F7508313A4D
:100FE2000319D62F033A0319DB2F013A0319E02F15
:0E0FF200073A0319E52FEA2FC02FC02F012860
:020000040001F9
:04000E0084CFFFDAC2
:00000001FF
