:020000000A29CB
:10000800803120007F08F800911E0B280C28A828B2
:1000180023001908243A031D122813282828200031
:100028002908FC01FC072808FB01FB07A801A90116
:100038002708AB01AB072608AA01AA07A601A70152
:10004800F901FA010C15A628230019085F3A031DC7
:100058002E282F28352801302000A4000030A500C4
:10006800A628230019087C3A031D3B283C28402871
:100078002000A401A501A6282000250824040319AE
:100088004628472864282908F101F1072808F001C3
:10009800F0070A30F2000030F3008131302180315E
:1000A800230019087007F60071080318710AF70091
:1000B8007608D03E2000A800FF30773DA900A6288A
:1000C80023001908283A031D6A286B287128013073
:1000D8002000A2000030A300A62823001908293A0E
:1000E800031D772878287C282000A201A301A628D0
:1000F800200023082204031982288328A628270819
:10010800F101F1072608F001F0070A30F20000308B
:10011800F300813130218031230019087007F6007F
:1001280071080318710AF7007608D03E2000A6006F
:10013800FF30773DA700A628A628A628A628A62827
:10014800A628A6289112A8280B1DAB28AC2806299A
:100158000B118D3095000130A0070030A13D21081A
:10016800803AFF0083307F02031DBC28E83020025C
:10017800031CBF28C02806292000A001A1010130C6
:10018800FB070030FC3D7A087904031DCC28CD28F4
:10019800E8287C08803AF6002B08803A7602031D8E
:1001A800D7282A087B020318DA28DB28E028200051
:1001B8000C1CDF28E028062920000C110130F9006A
:1001C8000030FA00062906297A0879040319ED286F
:1001D800EE2806297C08803AFF008E307F02031D36
:1001E800F72810307B02031CFA28FB280629200078
:1001F8000C15FB01FC01F901FA010629062906295B
:100208000629062978082000FF00090088015429DA
:100218005A302100990023008C01093021008C00FC
:10022800043020008C0022009D171D1523009F1507
:1002380024309E0090309D0019309B0020009112C0
:10024800210095018D30200095000B112100911699
:100258008B160B178B170800F401F5013329701C56
:10026800362937293B297208F4077308F53D013010
:10027800F235F30D890B3C290130F136F00C890B6E
:10028800412971087004031D4A294B2933294C2937
:100298007508F101F1077408F001F0075329080007
:1002A800F901FA01FB01FC01A001A101A201A301CE
:1002B800A401A501A601A701A801A9018131722104
:1002C8008131AA00813173218131AB0020006C2972
:1002D80081310C218131702970290A292C3401348B
:020000040001F9
:04000E0084CFFFDAC2
:00000001FF
