:0600000001288801462FD3
:100E8C002000982FF200612F22000C155230F10037
:100E9C002930F000F00B502FF10B502F552F220062
:100EAC000C115230F1002930F000F00B5B2FF10BDC
:100EBC005B2F602F612F0130F2027208FF3A031D85
:100ECC00682F692F4A2F6A2F080022000C15113049
:100EDC00F1003A30F000F00B712FF10B712F640020
:100EEC0022000C111130F1003A30F000F00B7C2F85
:100EFC00F10B7C2F640022000C151130F1003A30FC
:100F0C00F000F00B872FF10B872F640022000C11DF
:100F1C001130F1003A30F000F00B922FF10B922FC0
:100F2C00640008005A302100990020008C01220036
:100F3C009D171D15EB3021008C0023008C011F30F8
:100F4C0024008C0021009513903023009D00243048
:100F5C009E0008309F009F1519309B00B62FB62FAE
:100F6C002000911EBA2FBB2FB62F23009D1CBF2F24
:100F7C00C02FC72F1D121D161908F3007308F4009B
:100F8C00B62F1908F3007308F400CC2F2000111EA3
:100F9C00D02FD12FCC2FD22F740823009A00EF2FF3
:100FAC000130873148278731B62F023087314827E7
:100FBC008731B62F0330873148278731B62F04305D
:100FCC00873148278731B62F87316B278731B62F6A
:100FDC00B62F7408313A0319D62F033A0319DB2FB5
:100FEC00013A0319E02F073A0319E52FEA2FB62F20
:040FFC00B62F0128E3
:020000040001F9
:04000E0084CFFFDAC2
:00000001FF
